{"abi":[{"type":"function","name":"forwardToken","inputs":[],"outputs":[],"stateMutability":"nonpayable"},{"type":"function","name":"getRecipient","inputs":[],"outputs":[{"name":"","type":"address","internalType":"address"}],"stateMutability":"view"},{"type":"function","name":"getRelayer","inputs":[],"outputs":[{"name":"","type":"address","internalType":"address"}],"stateMutability":"view"},{"type":"function","name":"getUSDC","inputs":[],"outputs":[{"name":"","type":"address","internalType":"address"}],"stateMutability":"view"},{"type":"function","name":"getUSDCBalance","inputs":[],"outputs":[{"name":"","type":"uint256","internalType":"uint256"}],"stateMutability":"view"},{"type":"function","name":"initialize","inputs":[{"name":"_recipient","type":"address","internalType":"address"},{"name":"_relayer","type":"address","internalType":"address"},{"name":"_usdc","type":"address","internalType":"address"}],"outputs":[],"stateMutability":"nonpayable"},{"type":"function","name":"isInitialized","inputs":[],"outputs":[{"name":"","type":"bool","internalType":"bool"}],"stateMutability":"view"},{"type":"event","name":"TokensForwarded","inputs":[{"name":"token","type":"address","indexed":true,"internalType":"address"},{"name":"amount","type":"uint256","indexed":false,"internalType":"uint256"},{"name":"recipient","type":"address","indexed":true,"internalType":"address"},{"name":"forwarder","type":"address","indexed":true,"internalType":"address"},{"name":"timestamp","type":"uint256","indexed":false,"internalType":"uint256"}],"anonymous":false},{"type":"error","name":"AlreadyInitialized","inputs":[]},{"type":"error","name":"InvalidAmount","inputs":[]},{"type":"error","name":"InvalidToken","inputs":[]},{"type":"error","name":"TransferFailed","inputs":[]},{"type":"error","name":"UnauthorizedRelayer","inputs":[]}],"bytecode":{"object":"0x608060405234801561001057600080fd5b5061062d806100206000396000f3fe608060405234801561001057600080fd5b506004361061007d5760003560e01c80633cfd1ccc1161005b5780633cfd1ccc146100c7578063936a9f2d146100dd578063bdc50373146100e7578063c0c53b8b146100ef57600080fd5b80631b88094d146100825780631bf01e9b146100a7578063392e53cd146100af575b600080fd5b61008a610102565b6040516001600160a01b0390911681526020015b60405180910390f35b61008a61011f565b6100b7610149565b604051901515815260200161009e565b6100cf61019d565b60405190815260200161009e565b6100e5610211565b005b61008a610460565b6100e56100fd366004610552565b61048a565b600061011a6000805160206105d88339815191525490565b905090565b600061011a7f79b442aca00171e9024c9195c5e76fe50b19b35a6e107b6bc6528734b639ff5c5490565b600080610154610102565b6001600160a01b03161415801561017c57506000610170610460565b6001600160a01b031614155b801561011a5750600061018d61011f565b6001600160a01b03161415905090565b60006101a761011f565b6040516370a0823160e01b81523060048201526001600160a01b0391909116906370a0823190602401602060405180830381865afa1580156101ed573d6000803e3d6000fd5b505050506040513d601f19601f8201168201806040525081019061011a9190610595565b600061023b7fe6ce5afc9e2bf95f409a2e179220fb775e567ad6d21c637c48cf37e2171bde7f5490565b9050336001600160a01b0382161461026657604051633c20627b60e01b815260040160405180910390fd5b60006102907f79b442aca00171e9024c9195c5e76fe50b19b35a6e107b6bc6528734b639ff5c5490565b905060006102aa6000805160206105d88339815191525490565b90506001600160a01b03821615806102c957506001600160a01b038116155b156102e75760405163c1ab6dc160e01b815260040160405180910390fd5b6040516370a0823160e01b815230600482015282906000906001600160a01b038316906370a0823190602401602060405180830381865afa158015610330573d6000803e3d6000fd5b505050506040513d601f19601f820116820180604052508101906103549190610595565b9050806000036103775760405163162908e360e11b815260040160405180910390fd5b60405163a9059cbb60e01b81526001600160a01b038481166004830152602482018390526000919084169063a9059cbb906044016020604051808303816000875af11580156103ca573d6000803e3d6000fd5b505050506040513d601f19601f820116820180604052508101906103ee91906105ae565b90508061040e576040516312171d8360e31b815260040160405180910390fd5b6040805183815242602082015233916001600160a01b0387811692908916917f643224cd728f524c47d6df837c0fc0d256f737d3dd572ad5e67cce1d5a06aac5910160405180910390a4505050505050565b600061011a7fe6ce5afc9e2bf95f409a2e179220fb775e567ad6d21c637c48cf37e2171bde7f5490565b60006104a26000805160206105d88339815191525490565b6001600160a01b0316146104c85760405162dc149f60e41b815260040160405180910390fd5b6104df6000805160206105d8833981519152849055565b6105087fe6ce5afc9e2bf95f409a2e179220fb775e567ad6d21c637c48cf37e2171bde7f839055565b6105317f79b442aca00171e9024c9195c5e76fe50b19b35a6e107b6bc6528734b639ff5c829055565b505050565b80356001600160a01b038116811461054d57600080fd5b919050565b60008060006060848603121561056757600080fd5b61057084610536565b925061057e60208501610536565b915061058c60408501610536565b90509250925092565b6000602082840312156105a757600080fd5b5051919050565b6000602082840312156105c057600080fd5b815180151581146105d057600080fd5b939250505056feb0105264ce56a52bde204750b5ef9790e5344a394cd11f569dc96f60b13d9b24a264697066735822122080e6c4c64e22a5b517edab6d0ec6db072cca69a65d0807effcaa591649620fee64736f6c63430008180033","linkReferences":{}},"methodIdentifiers":{"forwardToken()":"936a9f2d","getRecipient()":"1b88094d","getRelayer()":"bdc50373","getUSDC()":"1bf01e9b","getUSDCBalance()":"3cfd1ccc","initialize(address,address,address)":"c0c53b8b","isInitialized()":"392e53cd"},"id":16}